{
  "contractName": "PaymentReceiver",
  "abi": [
    {
      "inputs": [
        {
          "internalType": "contract SimpleSupplyChain",
          "name": "_parentContract",
          "type": "address"
        },
        {
          "internalType": "uint256",
          "name": "_price",
          "type": "uint256"
        },
        {
          "internalType": "uint256",
          "name": "_id",
          "type": "uint256"
        }
      ],
      "stateMutability": "nonpayable",
      "type": "constructor"
    },
    {
      "stateMutability": "nonpayable",
      "type": "fallback"
    },
    {
      "inputs": [],
      "name": "id",
      "outputs": [
        {
          "internalType": "uint256",
          "name": "",
          "type": "uint256"
        }
      ],
      "stateMutability": "view",
      "type": "function"
    },
    {
      "inputs": [],
      "name": "price",
      "outputs": [
        {
          "internalType": "uint256",
          "name": "",
          "type": "uint256"
        }
      ],
      "stateMutability": "view",
      "type": "function"
    },
    {
      "stateMutability": "payable",
      "type": "receive"
    }
  ],
  "bytecode": "0x608060405234801561001057600080fd5b506040516103723803806103728339818101604052606081101561003357600080fd5b8101908080519060200190929190805190602001909291908051906020019092919050505082600260006101000a81548173ffffffffffffffffffffffffffffffffffffffff021916908373ffffffffffffffffffffffffffffffffffffffff16021790555081600081905550806001819055505050506102b9806100b96000396000f3fe60806040526004361061002d5760003560e01c8063a035b1fe14610221578063af640d0f1461024c57610212565b36610212576000600260009054906101000a900473ffffffffffffffffffffffffffffffffffffffff1673ffffffffffffffffffffffffffffffffffffffff1634600154604051602401808281526020019150506040516020818303038152906040527fc5391144000000000000000000000000000000000000000000000000000000007bffffffffffffffffffffffffffffffffffffffffffffffffffffffff19166020820180517bffffffffffffffffffffffffffffffffffffffffffffffffffffffff83818316178352505050506040518082805190602001908083835b60208310610131578051825260208201915060208101905060208303925061010e565b6001836020036101000a03801982511681845116808217855250505050505090500191505060006040518083038185875af1925050503d8060008114610193576040519150601f19603f3d011682016040523d82523d6000602084013e610198565b606091505b505090508061020f576040517f08c379a00000000000000000000000000000000000000000000000000000000081526004018080602001828103825260118152602001807f4974656d2063616e74206265207061696400000000000000000000000000000081525060200191505060405180910390fd5b50005b34801561021e57600080fd5b50005b34801561022d57600080fd5b50610236610277565b6040518082815260200191505060405180910390f35b34801561025857600080fd5b5061026161027d565b6040518082815260200191505060405180910390f35b60005481565b6001548156fea2646970667358221220e49b071ab755a2e15725cae783b0ea0c6d4b5a953af444e1e9ded09cc4198e1b64736f6c63430006070033",
  "immutableReferences": {},
  "source": "pragma solidity ^0.6.0;\n\nimport './SimpleSupplyChain.sol';\n\ncontract PaymentReceiver {\n    uint public price;\n    uint public id;\n    \n    SimpleSupplyChain parentContract;\n    \n    constructor(SimpleSupplyChain _parentContract, uint _price, uint _id) public {\n        parentContract = _parentContract;\n        price = _price;\n        id = _id;\n    }\n    \n    receive() payable external {\n        (bool success, ) = address(parentContract).call{ value: msg.value }(abi.encodeWithSignature('payForItem(uint256)', id));\n        \n        require(success, 'Item cant be paid');\n    }\n    \n    fallback() external {}\n}",
  "sourcePath": "/Users/piotrmisiurek/ethereum/truffle-hallo-world/contracts/PaymentReceiver.sol",
  "compiler": {
    "name": "solc",
    "version": "0.6.7+commit.b8d736ae.Emscripten.clang"
  },
  "schemaVersion": "3.1.0",
  "updatedAt": "2020-05-08T09:27:33.451Z",
  "devdoc": {
    "methods": {}
  },
  "userdoc": {
    "methods": {}
  }
}