{
  "contractName": "SimpleSupplyChain",
  "abi": [
    {
      "anonymous": false,
      "inputs": [
        {
          "indexed": true,
          "internalType": "uint256",
          "name": "_itemId",
          "type": "uint256"
        },
        {
          "indexed": false,
          "internalType": "uint8",
          "name": "_state",
          "type": "uint8"
        },
        {
          "indexed": false,
          "internalType": "uint256",
          "name": "_price",
          "type": "uint256"
        },
        {
          "indexed": true,
          "internalType": "address",
          "name": "_sender",
          "type": "address"
        },
        {
          "indexed": true,
          "internalType": "address",
          "name": "_paymentReceiver",
          "type": "address"
        }
      ],
      "name": "ItemStateChanged",
      "type": "event"
    },
    {
      "stateMutability": "payable",
      "type": "fallback",
      "payable": true
    },
    {
      "inputs": [],
      "name": "isOwner",
      "outputs": [
        {
          "internalType": "bool",
          "name": "",
          "type": "bool"
        }
      ],
      "stateMutability": "view",
      "type": "function",
      "constant": true
    },
    {
      "inputs": [
        {
          "internalType": "uint256",
          "name": "",
          "type": "uint256"
        }
      ],
      "name": "items",
      "outputs": [
        {
          "internalType": "contract PaymentReceiver",
          "name": "paymentReceiver",
          "type": "address"
        },
        {
          "internalType": "string",
          "name": "name",
          "type": "string"
        },
        {
          "internalType": "uint256",
          "name": "price",
          "type": "uint256"
        },
        {
          "internalType": "enum SimpleSupplyChain.ItemState",
          "name": "state",
          "type": "uint8"
        }
      ],
      "stateMutability": "view",
      "type": "function",
      "constant": true
    },
    {
      "inputs": [],
      "name": "itemsCount",
      "outputs": [
        {
          "internalType": "uint256",
          "name": "",
          "type": "uint256"
        }
      ],
      "stateMutability": "view",
      "type": "function",
      "constant": true
    },
    {
      "inputs": [],
      "name": "owner",
      "outputs": [
        {
          "internalType": "address payable",
          "name": "",
          "type": "address"
        }
      ],
      "stateMutability": "view",
      "type": "function",
      "constant": true
    },
    {
      "stateMutability": "payable",
      "type": "receive",
      "payable": true
    },
    {
      "inputs": [
        {
          "internalType": "string",
          "name": "_name",
          "type": "string"
        },
        {
          "internalType": "uint256",
          "name": "_price",
          "type": "uint256"
        }
      ],
      "name": "listItem",
      "outputs": [],
      "stateMutability": "nonpayable",
      "type": "function"
    },
    {
      "inputs": [
        {
          "internalType": "uint256",
          "name": "_itemId",
          "type": "uint256"
        }
      ],
      "name": "payForItem",
      "outputs": [],
      "stateMutability": "payable",
      "type": "function",
      "payable": true
    },
    {
      "inputs": [
        {
          "internalType": "uint256",
          "name": "_itemId",
          "type": "uint256"
        }
      ],
      "name": "sendItem",
      "outputs": [],
      "stateMutability": "nonpayable",
      "type": "function"
    }
  ],
  "bytecode": "0x6080604052336000806101000a81548173ffffffffffffffffffffffffffffffffffffffff021916908373ffffffffffffffffffffffffffffffffffffffff160217905550611181806100536000396000f3fe6080604052600436106100745760003560e01c8063bfb231d21161004e578063bfb231d2146102ad578063c5391144146103b0578063e2440741146103de578063e2c03ace14610419576100e7565b80638511c937146101555780638da5cb5b146102275780638f32d59b1461027e576100e7565b366100e7576040517f08c379a00000000000000000000000000000000000000000000000000000000081526004018080602001828103825260178152602001807f576520646f6e742077616e7420796f7572206d6f6e657900000000000000000081525060200191505060405180910390fd5b6040517f08c379a00000000000000000000000000000000000000000000000000000000081526004018080602001828103825260138152602001807f4e6f7420696d706c656d656e746564207965740000000000000000000000000081525060200191505060405180910390fd5b34801561016157600080fd5b506102256004803603604081101561017857600080fd5b810190808035906020019064010000000081111561019557600080fd5b8201836020820111156101a757600080fd5b803590602001918460018302840111640100000000831117156101c957600080fd5b91908080601f016020809104026020016040519081016040528093929190818152602001838380828437600081840152601f19601f82011690508083019250505050505050919291929080359060200190929190505050610444565b005b34801561023357600080fd5b5061023c6106c8565b604051808273ffffffffffffffffffffffffffffffffffffffff1673ffffffffffffffffffffffffffffffffffffffff16815260200191505060405180910390f35b34801561028a57600080fd5b506102936106ed565b604051808215151515815260200191505060405180910390f35b3480156102b957600080fd5b506102e6600480360360208110156102d057600080fd5b8101908080359060200190929190505050610744565b604051808573ffffffffffffffffffffffffffffffffffffffff1673ffffffffffffffffffffffffffffffffffffffff1681526020018060200184815260200183600381111561033257fe5b60ff168152602001828103825285818151815260200191508051906020019080838360005b83811015610372578082015181840152602081019050610357565b50505050905090810190601f16801561039f5780820380516001836020036101000a031916815260200191505b509550505050505060405180910390f35b6103dc600480360360208110156103c657600080fd5b8101908080359060200190929190505050610839565b005b3480156103ea57600080fd5b506104176004803603602081101561040157600080fd5b8101908080359060200190929190505050610a86565b005b34801561042557600080fd5b5061042e610cd8565b6040518082815260200191505060405180910390f35b61044c6106ed565b6104be576040517f08c379a00000000000000000000000000000000000000000000000000000000081526004018080602001828103825260038152602001807f343031000000000000000000000000000000000000000000000000000000000081525060200191505060405180910390fd5b6104c6610cde565b604051806080016040528030846002546040516104e290610d27565b808473ffffffffffffffffffffffffffffffffffffffff1673ffffffffffffffffffffffffffffffffffffffff1681526020018381526020018281526020019350505050604051809103906000f080158015610542573d6000803e3d6000fd5b5073ffffffffffffffffffffffffffffffffffffffff1681526020018481526020018381526020016001600381111561057757fe5b8152509050806000015173ffffffffffffffffffffffffffffffffffffffff163373ffffffffffffffffffffffffffffffffffffffff166002547f414facf061b5a6f01215030120e90fa2aabaa90d50ac091140b3e1770198cdbc846060015160038111156105e257fe5b86604051808360ff1660ff1681526020018281526020019250505060405180910390a480600160006002600081548092919060010191905055815260200190815260200160002060008201518160000160006101000a81548173ffffffffffffffffffffffffffffffffffffffff021916908373ffffffffffffffffffffffffffffffffffffffff160217905550602082015181600101908051906020019061068c929190610d34565b506040820151816002015560608201518160030160006101000a81548160ff021916908360038111156106bb57fe5b0217905550905050505050565b6000809054906101000a900473ffffffffffffffffffffffffffffffffffffffff1681565b60008060009054906101000a900473ffffffffffffffffffffffffffffffffffffffff1673ffffffffffffffffffffffffffffffffffffffff163373ffffffffffffffffffffffffffffffffffffffff1614905090565b60016020528060005260406000206000915090508060000160009054906101000a900473ffffffffffffffffffffffffffffffffffffffff1690806001018054600181600116156101000203166002900480601f0160208091040260200160405190810160405280929190818152602001828054600181600116156101000203166002900480156108165780601f106107eb57610100808354040283529160200191610816565b820191906000526020600020905b8154815290600101906020018083116107f957829003601f168201915b5050505050908060020154908060030160009054906101000a900460ff16905084565b6001600381111561084657fe5b6001600083815260200190815260200160002060030160009054906101000a900460ff16600381111561087557fe5b146108e8576040517f08c379a000000000000000000000000000000000000000000000000000000000815260040180806020018281038252601d8152602001807f4f6e6c79206c6973746564206974656d732063616e206265207061696400000081525060200191505060405180910390fd5b60016000828152602001908152602001600020600201543414610973576040517f08c379a000000000000000000000000000000000000000000000000000000000815260040180806020018281038252600f8152602001807f506179206578616374207072696365000000000000000000000000000000000081525060200191505060405180910390fd5b60026001600083815260200190815260200160002060030160006101000a81548160ff021916908360038111156109a657fe5b02179055506001600082815260200190815260200160002060000160009054906101000a900473ffffffffffffffffffffffffffffffffffffffff1673ffffffffffffffffffffffffffffffffffffffff163373ffffffffffffffffffffffffffffffffffffffff16827f414facf061b5a6f01215030120e90fa2aabaa90d50ac091140b3e1770198cdbc6001600086815260200190815260200160002060030160009054906101000a900460ff166003811115610a6057fe5b34604051808360ff1660ff1681526020018281526020019250505060405180910390a450565b610a8e6106ed565b610b00576040517f08c379a00000000000000000000000000000000000000000000000000000000081526004018080602001828103825260038152602001807f343031000000000000000000000000000000000000000000000000000000000081525060200191505060405180910390fd5b60026003811115610b0d57fe5b6001600083815260200190815260200160002060030160009054906101000a900460ff166003811115610b3c57fe5b14610baf576040517f08c379a000000000000000000000000000000000000000000000000000000000815260040180806020018281038252601c8152602001807f596f752063616e2073656e64206f6e6c792070616964206974656d730000000081525060200191505060405180910390fd5b60036001600083815260200190815260200160002060030160006101000a81548160ff02191690836003811115610be257fe5b02179055506001600082815260200190815260200160002060000160009054906101000a900473ffffffffffffffffffffffffffffffffffffffff1673ffffffffffffffffffffffffffffffffffffffff163373ffffffffffffffffffffffffffffffffffffffff16827f414facf061b5a6f01215030120e90fa2aabaa90d50ac091140b3e1770198cdbc6001600086815260200190815260200160002060030160009054906101000a900460ff166003811115610c9c57fe5b6001600087815260200190815260200160002060020154604051808360ff1660ff1681526020018281526020019250505060405180910390a450565b60025481565b6040518060800160405280600073ffffffffffffffffffffffffffffffffffffffff168152602001606081526020016000815260200160006003811115610d2157fe5b81525090565b61037280610dda83390190565b828054600181600116156101000203166002900490600052602060002090601f016020900481019282601f10610d7557805160ff1916838001178555610da3565b82800160010185558215610da3579182015b82811115610da2578251825591602001919060010190610d87565b5b509050610db09190610db4565b5090565b610dd691905b80821115610dd2576000816000905550600101610dba565b5090565b9056fe608060405234801561001057600080fd5b506040516103723803806103728339818101604052606081101561003357600080fd5b8101908080519060200190929190805190602001909291908051906020019092919050505082600260006101000a81548173ffffffffffffffffffffffffffffffffffffffff021916908373ffffffffffffffffffffffffffffffffffffffff16021790555081600081905550806001819055505050506102b9806100b96000396000f3fe60806040526004361061002d5760003560e01c8063a035b1fe14610221578063af640d0f1461024c57610212565b36610212576000600260009054906101000a900473ffffffffffffffffffffffffffffffffffffffff1673ffffffffffffffffffffffffffffffffffffffff1634600154604051602401808281526020019150506040516020818303038152906040527fc5391144000000000000000000000000000000000000000000000000000000007bffffffffffffffffffffffffffffffffffffffffffffffffffffffff19166020820180517bffffffffffffffffffffffffffffffffffffffffffffffffffffffff83818316178352505050506040518082805190602001908083835b60208310610131578051825260208201915060208101905060208303925061010e565b6001836020036101000a03801982511681845116808217855250505050505090500191505060006040518083038185875af1925050503d8060008114610193576040519150601f19603f3d011682016040523d82523d6000602084013e610198565b606091505b505090508061020f576040517f08c379a00000000000000000000000000000000000000000000000000000000081526004018080602001828103825260118152602001807f4974656d2063616e74206265207061696400000000000000000000000000000081525060200191505060405180910390fd5b50005b34801561021e57600080fd5b50005b34801561022d57600080fd5b50610236610277565b6040518082815260200191505060405180910390f35b34801561025857600080fd5b5061026161027d565b6040518082815260200191505060405180910390f35b60005481565b6001548156fea2646970667358221220e49b071ab755a2e15725cae783b0ea0c6d4b5a953af444e1e9ded09cc4198e1b64736f6c63430006070033a2646970667358221220183bf02d39cbded24152d2dd3f26b374bd96ccf3aa803f23b1b71eac35a7752264736f6c63430006070033",
  "immutableReferences": {},
  "source": "pragma solidity ^0.6.0;\n\nimport './Ownable.sol';\nimport './PaymentReceiver.sol';\n\ncontract SimpleSupplyChain is Ownable {\n    address constant addressZero = address(0);\n    \n    mapping(uint => Item) public items;\n    uint public itemsCount;\n\n    event ItemStateChanged(uint indexed _itemId, uint8 _state, uint _price, address indexed _sender, address indexed _paymentReceiver);\n\n\n    enum ItemState{NotExisting, Listed, Paid, Sent}\n    \n    struct Item {\n        PaymentReceiver paymentReceiver;\n        string name;\n        uint price;\n        ItemState state;\n    }\n    \n    function listItem(string memory _name, uint _price) public onlyOwner{\n        // TO DO walidacja pramsów\n        Item memory newItem = Item({ \n            name: _name,\n            price: _price,\n            state: ItemState.Listed,\n            paymentReceiver: new PaymentReceiver(this, _price, itemsCount)\n        });\n        \n        emit ItemStateChanged(itemsCount, uint8(newItem.state), _price, msg.sender, address(newItem.paymentReceiver));\n        \n        items[itemsCount++] = newItem;\n    }\n    \n    function payForItem(uint _itemId) payable public {\n        require(items[_itemId].state == ItemState.Listed, 'Only listed items can be paid');\n        require(msg.value == items[_itemId].price, 'Pay exact price');\n        items[_itemId].state = ItemState.Paid;\n    \n        emit ItemStateChanged(_itemId, uint8(items[_itemId].state), msg.value, msg.sender, address(items[_itemId].paymentReceiver));\n    }\n    \n    function sendItem(uint _itemId) public onlyOwner {\n        // TO DO whitelist of allowed sender addreses \n        \n        require(items[_itemId].state == ItemState.Paid, 'You can send only paid items');\n        \n        items[_itemId].state = ItemState.Sent;\n        \n        emit ItemStateChanged(_itemId, uint8(items[_itemId].state), items[_itemId].price, msg.sender, address(items[_itemId].paymentReceiver));\n    }\n    \n    receive() payable external {\n        revert('We dont want your money');\n    }\n    \n    fallback() payable external {\n        // TODO: allow to recieve funds with itemId in msg.data\n        // https://solidity.readthedocs.io/en/v0.6.6/contracts.html#fallback-function\n        revert('Not implemented yet');\n    }\n}",
  "sourcePath": "/Users/piotrmisiurek/ethereum/truffle-hallo-world/contracts/SimpleSupplyChain.sol",
  "compiler": {
    "name": "solc",
    "version": "0.6.7+commit.b8d736ae.Emscripten.clang"
  },
  "schemaVersion": "3.1.0",
  "updatedAt": "2020-05-08T09:39:16.223Z",
  "networkType": "ethereum",
  "devdoc": {
    "methods": {}
  },
  "userdoc": {
    "methods": {}
  }
}